:040000006F1030004D
:1000040000000000000000006F10407F6F10007FB0
:1000140011BFF9F70000000000000000000000001C
:1000240000000000000000000000000000000000CC
:100034006F10C07C000000006F10407C00000000C6
:100044006F10C07B6F00F01A6F10407B6F10007B45
:100054006F00D0196F0030236F10407A6F10007A50
:100064006F10C0796F10C0206F1040796F10007945
:100074006F1080476F1080786F1040786F10007891
:100084006F10C0776F1080776F1040776F10007714
:100094006F10C076000000000000000000000000A7
:1000A400000000000000000000000000000000004C
:0C00B40000000000000000000000000040
:1000C000B7870040194798D38280B787004013074D
:1000D000001498C34947D8C337574C00130717B4C7
:1000E000944B918ABDE623AE070623AC070623A6F0
:1000F000070823A4070823AE070823AC070823A694
:10010000070A23A4070A23AE070A23AC070A23A67B
:10011000070C23A4070C23AE070C23AC070C23A663
:10012000070E23A4070E4D47D8D337070300130744
:10013000170298D323A807069843014513672700A1
:1001400098C337C710001307D7C798C70947D8C344
:1001500082807D1751F70545828013051002828049
:1001600093178501E1879376750063DF0700B70772
:100170000001B397D70099C937860040345AD58F0C
:100180003CDA238DA1848280C167E5B7B786004041
:10019000B05A93C7F7FFF18FBCDA238D01848280B8
:1001A000B787004088DF828001CD378700401C532D
:1001B00037060800D18F1CD38547A38CF184828039
:1001C000378600401C523707F8FF7D17F98F1CD285
:1001D000A38C01848280B78700409387870712052C
:1001E0003E951C4113D707012310F6007D8BF18348
:1001F0002380E5009D8B2380F6008280B787004036
:100200009387870712053E951C414206EA054D8EED
:100210005D8E10C18280B7870040938787071205E3
:100220003E951C413707E003F98F1CC18280B787D8
:1002300000409387870712053E951C4186078583FA
:100240001CC18280B78700409387870712053E95BF
:1002500008416181137505088280378800401308C2
:10026000C80712054295D6073708E003B3F7070120
:10027000F205CD8F6A06D18FC206D58F1377F77F2F
:10028000D98F1CC18280B78700409387C7071205AA
:100290003E956A06F2051C414D8EC206558E1377B7
:1002A000F77F598E5D8E10C18280B787004093879B
:1002B000C70712053E951C41860785831CC18280B5
:1002C000B78700409387C70712053E951C41370743
:1002D000E003F98F1CC18280B78700409387C7076E
:1002E00012053E950841618113750508828083C718
:1002F000A185A98F9D8B99E7B787004088572181F9
:100300007D898280B787004012059387C7073E9595
:1003100008414181F5B703C705009377F5006205F1
:10032000B706E00356076185758F9207B7860040D0
:10033000635705009386C607B69798C38280938655
:100340008607DDBF9377F50062058A079A05618508
:10035000DD8D6358050093E53500B7870040ECC399
:10036000828093E51500D5BF378700401C53620596
:10037000A207A1831CD31C535D8D08D382803787CD
:1003800000405C43F19B5D8D48C31C4B918BF5FF96
:100390008280B7870040885361818280B70702203E
:1003A00003C7070093760706C1E29387070083C659
:1003B00017000D466389C60213061003638CC6043A
:1003C00005466393C6067D8B8946631FD7040111DA
:1003D00006CE03C547009305F100A3070100253FA2
:1003E000F2400561828083C72700130700036399E9
:1003F000E700378700401C43C166D58F1CC382804D
:10040000130710036392E702378700401C43B706C7
:100410000200E5B703C7370083C727002207BA9752
:10042000378700401CDF82808280378700405C5322
:10043000411122C406C613F4F70FA18B89CBA14743
:100440005CD383C7918581C7085BEF00D01E93778B
:10045000140063860712378400405C505450A18317
:10046000B1829D8B858A639F070EA9CEF52983C62D
:100470008185850693F6F60F238CD18483C681850A
:10048000FD8A238CD18419E9238C0184B7070104E8
:100490003CDC232E040693071004B1A0232C040691
:1004A0007C5CB70620EC03C78185938606C0F58F78
:1004B000C98F5607D98F37050114C98F7CDC930784
:1004C000300415A03C5C1397170063530704232CDA
:1004D0000406E9357D2CC167FD17631FF500B707DA
:1004E00000187CDC8D477CC0B78700400547D8D317
:1004F000B240224441018280B707010429C9930711
:100500000020E3E3A7FEB70701145D8D68DC45BF5B
:100510003C5C1397270063580700D121232E040663
:10052000232C0406D1B7552903C771850507137716
:10053000F70FA38BE18403C771857D8BA38BE184C7
:1005400009C983C7718537070104D607D98F3CDCF9
:1005500099B73707010438DC1307100478C0A38B60
:10056000018459B7FD1737070020130787018A0751
:10057000BA9781C69C43829785BFDC4FEDBF09883F
:1005800025D8B7870040B84F9306000A1377071E97
:100590006319D7001307002CB8C723A6070423A8A4
:1005A0000704B7870040094799B73D432A8763731B
:1005B000C3029377F700BDEFADE5937606FF3D8A62
:1005C000BA960CC34CC30CC74CC74107E36BD7FEAC
:1005D00011E28280B306C3408A0697020000969615
:1005E0006780A6002307B700A306B7002306B7005D
:1005F000A305B7002305B700A304B7002304B70081
:10060000A303B7002303B700A302B7002302B70078
:10061000A301B7002301B700A300B7002300B70070
:10062000828093F5F50F93968500D58D93960501FD
:10063000D58D61B793962700970200009696868223
:10064000E78086FA9680C1171D8F3E96E374C3F843
:10065000A5B7B7E700E04147B443B8C30547331532
:10066000A70023A0A718B4C38280411106C639C1D0
:10067000A93C01C937350000130545ECEF10405780
:1006800001A0B787004013073030B8DB37070220DE
:1006900013070700F8DB372702201307078023A082
:1006A000E70837E702201307078023A2E708B240D4
:1006B000410182800945E131B7870040130780027C
:1006C00098C34D47D8C323A40700194798D3C5B78B
:1006D00001113705022022CC1307050006CE26CAD9
:1006E0004AC84EC652C456C2034617008355670017
:1006F0002388C18223A6B1820948834607009387D5
:1007000001831384C182630506031307A00A6300F3
:10071000E6047D57C1692380E700FD19F240624479
:100720004E85D2444249B249224A924A05618280AA
:10073000034647001547E31EE6FC9307E00863F312
:10074000B7001CC08D679387C7D823ACF1820440E3
:1007500093070020268963F49700130900209397DC
:10076000860193190901E18793D9090163DF070025
:10077000138A8183832A0A004A8613050500D685D9
:10078000CA9AEF10A02923205A01B384244104C03F
:1007900071B701113705022022CC06CE26CA4AC8FD
:1007A0004EC652C456C29306050083C7160003D72F
:1007B000660003C606001388C1822388F1822320C5
:1007C000E8001376060611CA6244F240D244424958
:1007D000B249224A924A0561E5BD194693850183D3
:1007E0001384C1826383C706930805006364F6021D
:1007F000054701496389E702638207160D47638451
:10080000E70215476387E714FD5741692380F50028
:100810007D1911A82D4701496387E700636FF70031
:100820002547E393E7FEF24062444A85D2444249B9
:10083000B249224A924A05618280130700030149A6
:10084000E383E7FE1307100375BF03C636000948AC
:1008500093848183630E06076369C8008547630438
:10086000F602FD572380F5003DA08D47630BF60689
:10087000BD47E318F6FED94763F3E7001CC08D6758
:10088000938707D201A8C94763F3E7001CC08D67AF
:10089000938787E49CC0032A040093070020D28931
:1008A00063F447019309002083AA04001399090106
:1008B0004E86330A3A41D68513050500D699EF10C6
:1008C000E015135909012320440123A03401A1BFDD
:1008D0009307C00263F3E7001CC08D679387C7E1ED
:1008E00055BF83C7260063840705636DF8008DCB71
:1008F0008546E398D7F6A14763F3E7001CC09387CA
:10090000C18049BF638EC7029306E00EE39BD7F414
:10091000C94763F3E7001CC08D67938787D79DBFE6
:10092000914763F3E7001CC093878180A5B79307C5
:10093000600263F3E7001CC08D679387C7E599BF2A
:10094000D94763F3E7001CC0B7070020938707006F
:1009500091B783C7280001491CC0F1B52390E60078
:10096000232008000949C1B503C70183011156C2FC
:1009700006CE22CC26CA4AC84EC652C49947814ADE
:100980006313F70483A4C18213070020138AC18272
:1009900026846374970013040020138981838329BC
:1009A000090037050220931A04012286818CCE8526
:1009B000130505004E94EF10600693DA0A01232018
:1009C0009A0023208900F24062445685D24442496D
:1009D000B249224A924A056182800145828003C75A
:1009E000018395476315F70003A5C182B5BA8280DC
:1009F0002D3C73002030411122C6B7270040054727
:100A00002383E7009387818203C7070085466394A9
:100A1000E6025145238007002D3955451D39014512
:100A2000A93137350000130545E8EF10601C32444A
:100A300041017300203013848182834704001147F1
:100A40006308F702514531315545213101453139AE
:100A5000B797004023A0070037070002B7E700E080
:100A60003735000023A0E710130545E9EF106006B5
:100A700085472300F4003724004023010400454546
:100A8000C93E89472300F4005DB7411122C637846F
:100A900000405C4413973701635A07009307201CFA
:100AA0001CC00145EFF0BF8D85675CC4B78700406F
:100AB000D847058B29C70547D8C7138711838346B5
:100AC000070093F6F60F81CE93060028B4C7B70649
:100AD00002009106F4C723A807042300070011476A
:100AE00045452384E182B536B72700400947238076
:100AF000E700654523810700A93E0145512E378453
:100B000000405C44918BB9C32384018237071000F5
:100B1000B7E700E023A0E7103707200023A0E71085
:100B20003707020023A0E7103755FE03B727004020
:100B300005472381E7001305056CEF00F06C0545C0
:100B40002D3691475CC40945EFF07F83378700401D
:100B50005C47A18B9DCFA1475CC701450547238416
:100B6000E18221365145F534B727004009472380FB
:100B7000E700238107004545E93CB7E700E0370778
:100B800000023735000023A0E710130585D3EF00DE
:100B90005074B7870040D8479316B70063D8060053
:100BA00037071000D8C70945EFF06FFD37840040C4
:100BB0005C4493F7074099CF930700405CC41C48FE
:100BC000858B638E070E0945EFF06FFB5C40056770
:100BD000D98F5CC0B7860040D84685679387078069
:100BE0007D8F01CB0546A388C182DCC60145EFF0AD
:100BF0000FF9378400405C441397270163570702BD
:100C000089675CC40945EFF08FF75C4093E70710F4
:100C10005CC0B7870040984B098B75FFD8430145EE
:100C20001377F7EFD8C3EFF02FF4378400405C441C
:100C300013970701635F07021C5037070080814646
:100C4000D98F1CD0A1675CC4014701468145054589
:100C5000232E0406EFF02FE3014681450545EFF012
:100C6000EFD90145EFF04FF05C4041777D17F98FE8
:100C70005CC0378400405C4493F7070499C705457E
:100C8000EFF0EFEF930700045CC4378400405C444E
:100C900093F7070299C70945EFF06FEE930700023B
:100CA0005CC4378400405C44C18B91C70945EFF0B8
:100CB0000FEDC1475CC4324441017300203023244E
:100CC000040009BF0111054522CC26CA06CE4AC838
:100CD0000144EFF0CFE1938741839C431389418323
:100CE000898F6369F40683C7118593F7F70FADCB3E
:100CF000114713F5F70F6373F7001145EF00D02D7F
:100D00002A842320A9000145EF005027B78700401F
:100D100023A0A7080545EFF0AFDA85450545130781
:100D20000040A2860546EFF00FD6A28513051008F5
:100D3000EFF04FE10D45EF00101E371700401DE5A5
:100D40003C578966D58F3CD7F2406244D244424931
:100D5000056182802AC6EF00F02405043245A5BF54
:100D60000545238E0182EFF0AFD5E9B77C57896640
:100D7000D58F7CD7D1BF0111714506CE22CC26CAB2
:100D80004AC8EFF01F8D0545EFF06FD601449387F9
:100D900041839C4313894183898F6365F40683C72C
:100DA000118593F7F70FADC7114713F5F70F63736D
:100DB000F7001145EF0050222A842320A9000145A5
:100DC000EF00D01BB787004023A0A7080545EFF030
:100DD0002FCF8545054513070040A2860546EFF055
:100DE0008FCAA28513051008EFF0CFD5F2406244F8
:100DF000B7E700E03707001023A0E710D2444249CC
:100E0000056182802AC6EF00F0190504324541B71A
:100E10000545238E0182EFF0AFCAC9BF8280828070
:100E200082808280828082808280828082808280B2
:100E30008280828082808280B7970040130700FC06
:100E40002388E700130700042398E7041307002012
:100E5000239AE7043707022013070700D8CB372768
:100E6000022013070780D8DB37E70220130707802B
:100E700098CF2398070609472389E706A389070621
:100E8000239A07062147238BE706A38B0706828058
:100E9000B797004001CD23800700130790032380FC
:100EA000E700130770022381E70079B71947238011
:100EB000E7008280011122CC9387E18306CE26CA07
:100EC0004AC84EC62390070083C701843705022015
:100ED000AD4693F7F70F034705001384E18363EFF3
:100EE000F6068D668A07938606EDB6979C43828741
:100EF0009306050083C736000946638BC7028D45FC
:100F00006384B7048546639BD7048D67938707F294
:100F100023A4F1849386218403D60600C94763E69F
:100F2000C70083D70600C207C1832310F400BDA801
:100F30008D67938707F023A4F1849386218403D6D9
:100F4000060093070002E1BF83C626008545638340
:100F5000B60299C6638AC602638AF604FD57F1B7E2
:100F60009387418123A4F1849386218403D60600CC
:100F7000914775B79387818123A4F1849386218457
:100F800003D60600A14761BF8D67938747F323A46B
:100F9000F1849386218403D606009307600241B74B
:100FA0009307050083C62700A384D18683560400D7
:100FB000C167FD178144638BD70483570400C207C0
:100FC000C183A9C7835704009306F0039304000468
:100FD00063E6F60083540400C204C180620761879F
:100FE000635F07001389818483290900268613051E
:100FF0000500CE85A699EF00702223203901835782
:101000000400858FC207C1832310F400F2406244BC
:1010100026854249D244B2490561828083C7A186B0
:101020002300F500854711B7B796004083C78600B7
:101030008D8B9DE3B7070020930600042398D70A01
:101040009306050083C62600938781862381D700F7
:1010500085462382D70099BF83C7860089468D8B3A
:10106000E390D7FEB7070020A146C9BF9377F701E9
:101070008946639DD7049306050083C64600638BAB
:10108000F60263EAD7008547E39AF6ECB79700408B
:10109000A38B070621BF130610086382C60213063E
:1010A0002008E39DC6EAB7960040239C0606238DE0
:1010B000F606EDBDB7970040238D0706C5BDB79670
:1010C0000040239A0606238BF606CDB5E39807E881
:1010D0009307050083C627008547E399F6EC9387BD
:1010E000818683C63700F99AA381D700C1B593766C
:1010F000F701E38506E68947E392F6E693070500E4
:1011000003C62700E31C06E483C74700638FD702AA
:1011100063EEF6008546E393D7E4B796004083C7B5
:10112000760793E73700A38BF60649B593061008B8
:101130006386D70293062008E392D7E2B796004071
:1011400083C7A60793E737009DB7B796004083C7CC
:10115000B60793E73700A38DF60689BDB796004022
:1011600083C7660793E73700B9BF89472310F400A8
:101170009307050083C74700231005009306100856
:10118000639CD700B797004083C767078D468D8B58
:10119000E39ED7E0854769B58546639DD700B7963E
:1011A000004083C676070D468D8AE391C6E0230092
:1011B000F500A5BB13062008639FC700B797004042
:1011C00083C7A7078D8B0D46E392C7DE2300D500AA
:1011D0002310D400E1BB0946E39AC7DCB79700406F
:1011E00083C7B707C5B783C70184011106CE22CCD8
:1011F00026CA4AC84EC693F7F70F15476384E70619
:10120000194701446398E7049387E18383D7070074
:101210001307F0039384E183130400046366F7006B
:1012200003D4040042044180138981848329090086
:10123000370502202286CE8513050500EF00007ECB
:1012400083D70400A29923203901818FC207C1836B
:101250002390F4002285F2406244D2444249B249CC
:101260000561828003C79186B79700400144A3813E
:10127000E700CDB7411122C6379400408347A40050
:1012800093F7F70F13F707022DC7B707022003C71D
:1012900007009387070003C617002382E184238099
:1012A000C18483D66700137707062391D184014553
:1012B0001DE70931C167FD176313F5022318040602
:1012C0008D472309F406A309F406B79700401307D6
:1012D00000022385E7003244410173002030B797B4
:1012E00000402398A70621472389E706A389E7063C
:1012F000E9BF13F7270071C30347B4008347B40065
:101300003D8B93F7F70F19EF91838D8B0947639E00
:10131000E702D13D01EDA147A309F4062318040615
:1013200023090406B7970040094765B72318A406A8
:101330008347240793C787002309F40683472407BC
:1013400093F7C70F2309F406F1BFE9FF9386E18302
:101350000357C40083D606009387E1836372D704E2
:101360000357C40083D60700420741833387E64012
:10137000420741832390E70083D70700C207C18358
:101380009DC3B797004003C7370713478700A3895A
:10139000E70603C737071377C70FA389E70659B7CF
:1013A00003D70700C1B7B797004023980706214726
:1013B0002389E706A3890706B5B713F7170029CBDA
:1013C000A53C8547A30104002305F40083C781825F
:1013D000054793F7F70FE390E7F037E700E0B7062C
:1013E00010002320D710B70620002320D710B706FF
:1013F00002002320D7103755FE0337270040230172
:10140000F7001305056C09250545EFF00FA6E1B5BA
:10141000918BE38207EC91472305F4006DBDB7176C
:101420000040B843B71620004111938606A006C6B7
:1014300022C4558FB8C3B84F856693860680558FF2
:10144000B8CFB84389663764004013670740B8C314
:10145000B8570145558FB8D7B853558FB8D3B85F33
:10146000558FB8DFB45B79777D17F98EB4DBF45B09
:10147000758FF8DB8347040093F7F7072300F40028
:101480008347040093E747002300F40083470400E8
:1014900093E707042300F4008347240093E7270021
:1014A0002301F4008347240093E747002301F4005D
:1014B0009D2448C40545852408C883471400370780
:1014C000001093F7770EA300F4008347140093E70E
:1014D0003700A300F400BD472304F402B2402244C5
:1014E000B7E700E023A0E71041018280411122C646
:1014F0003767004083478702898BD5C38947230418
:10150000F7029387C1849443850694C38347970267
:10151000898B91C7373500001305C5F5D12DB76705
:10152000004083C79702918B91C7373500001305A0
:1015300005F77D2D3764004083479402998BA9EF0E
:1015400019240545C92A35ED37350000130585F8FE
:101550004525370400201304240B83470400054766
:10156000631DF7000D45452A09E9230004003717DC
:1015700000403C578966D58F3CD783C7C18393F71A
:10158000F70F99EB83C7118593F7F70F91C785473D
:10159000238EF182EFF02FFE05472388E184376721
:1015A000004083478702918B89CB914737350000F4
:1015B0002304F7021305C5F9252D324441017300B8
:1015C00020308347B402C18B99C348C459B708C8B7
:1015D00049B7B7D7F00893870718B3D7A7022945AB
:1015E0003737004085462307D7409507B3D7A70272
:1015F000C207C1832316F740930770FC2301F7400D
:101600008D47A301F74093070004A300F740B717E5
:101610000040F84F13670718F8CFB8431367071057
:10162000B8C38280011122CC37142707130504E0C8
:1016300006CE26CA4AC84EC652C456C2A92C1305A5
:1016400004E0B926716513050520613737350000C0
:10165000130585FA712B3714004083451400373584
:101660000000130505FCB5214520553BB797004008
:1016700023A0070037071000B7E700E023A0E7101A
:101680003707200023A0E7103707020023A0E71048
:101690000549B72700403755FE032381270113056D
:1016A000056C9D260545EFE05FFC13054006B70479
:1016B000002001262389240B7C540967B7190040B8
:1016C000D98F7CD4238E0182096A83C7240B93F7B8
:1016D000F70F81EF0D45812009C92389240B83A7CA
:1016E000C906B3E7470123A6F90683C7C18393F769
:1016F000F70FE1FF83C7118593F7F70FF9D7238E13
:101700002183EFF04FE7D1B723890184A3890184B6
:10171000A3880184828083C7118505050A05AA97DD
:1017200013070006634FF70083C7318571153E9597
:101730003365E502B7070800938707083E952A0539
:101740008280014582809387118503C70700930635
:10175000C00563E4E6029386318503C706001306DD
:10176000000611073367C7022380E60003C707009E
:1017700011071377F70F2380E700828083C7118555
:101780006370F50283C721853E9593070006336594
:10179000F502B7070800938707083E952A0582805F
:1017A000014582809387118503C707001377F70FE0
:1017B0001DC39386218503C706001306000605078F
:1017C0003367C7022380E60003C707007D1713773E
:1017D000F70F2380E700828083C7118563E0A702AB
:1017E00003C7218593070006998F3E8793F7F70F6C
:1017F0006373F5002A871375F70F82800145828095
:1018000001A097F1FF1F9381E10A17210020130126
:10181000617F172500001305258697E5FF1F938537
:10182000657E1386818263FAC5008322050023A0AA
:10183000550011059105E3EAC5FE13858182938564
:1018400041876377B500232005001105E36DB5FEE0
:1018500017E501201305057B97E501209385857A1F
:101860006377B500232005001105E36DB5FE9302F3
:1018700080087390023097E2FFFF9382E27893E250
:10188000120073905230970200009382E2D9739055
:10189000123473002030B7470F0093870724335565
:1018A000F5029307C0031375F50F630CF50863ED9C
:1018B000A700BD476303F504F9476303F506B717AF
:1018C0000040238007008280930700066308F50824
:1018D000930780076301F50A93070005E311F5FEFE
:1018E000B7170040130770052380E700130780FA3D
:1018F0002380E7001307600481A0B7170040130797
:1019000070052380E700130780FA2380E7001307A0
:1019100020042384E700130700F82385E70045B778
:10192000B7170040130770052380E700130780FAFC
:101930002380E700130700042384E700130720F83F
:10194000E9BFB7170040130770052380E7001307AE
:1019500080FA2380E70013078004F9BFB71700401F
:10196000130770052380E700130780FA2380E70040
:1019700013075004D1B7B717004013077005238031
:10198000E700130780FA2380E700130740046DB7D0
:10199000B7177A00938707203355F5021375F50FB3
:1019A000238BA1849307803E3305F502239AA184FB
:1019B0008280B7F700E0D84B759BD8CB03D7418521
:1019C0003305A70213071010C8C723A8070098C340
:1019D00037F700E05C4B898BF5DF2320070082801E
:1019E000814737370040A14663C4C70032858280F3
:1019F0000345B740E38EA6FE3385F5000345050099
:101A000085072304A740CDB7B7270040C8C70947BB
:101A10002380E70051472380E7008280B3C7A500F9
:101A20008D8B3307C50081E78D4763EEC700AA871A
:101A30006370E50A83C6050085078505A38FD7FE79
:101A4000E3EAE7FE828093763500AA8791CA83C6CF
:101A5000050085078505A38FD7FE93F63700FDB7F0
:101A60009376C7FF138606FE63F0C70683A30500BF
:101A700083A2450083AF850003AFC50083AE050197
:101A800003AE450103A3850183A8C50193854502E3
:101A900023A0770003A8C5FF23A2570023A4F701C2
:101AA00023A6E70123A8D70123AAC70123AC670017
:101AB00023AE17019387470223AE07FF75B7904106
:101AC0009107910523AEC7FEE3EBD7FEE3E4E7F60B
:101AD000828039713EDA2ED232D436D63AD842DC00
:101AE00046DE97E7FF1F9387275D22CC804326CAF7
:101AF00006CEAA8409C41C4C99E3228535230C44E4
:101B000054102686228536C6EF00F016F240624455
:101B1000D24421618280011126CA4AC806CE22CC55
:101B20004EC652C4AA842E8901C51C4D91E3ED29ED
:101B30009C4C804499E32685C5299717000093871C
:101B4000E74B631CF402C0408357C400A18BB1C7AC
:101B50001C48A1C7FD59294A1C4483450900FD17AB
:101B6000B1E91CC463DE07062286A9452685412803
:101B7000FD576308F502294535A0971700009387A4
:101B8000E7496314F4008044C1B7971700009387B6
:101B9000E744E31BF4FAC04445BFA285268505222D
:101BA00055D97D55F2406244D2444249B249224A55
:101BB000056182801CC4050963D70700184C63CBFC
:101BC000E700638945011C401387170018C0238074
:101BD000B70059B7228626851D20E31F35F7D1B7F8
:101BE0001C401387170018C029472380E70061B7FE
:101BF00097E7FF1F9387474CAA85884329BF0111A8
:101C000022CC26CA4AC806CE4EC6AA842E89328461
:101C100001C51C4D91E30929971700009387073EE2
:101C20006319F406C0401C4C1CC48357C400A18B2C
:101C3000C9C31C48BDCF1C4808409379F90F1379DC
:101C4000F90F1D8D5C486346F500A2852685752C2D
:101C50002DE51C440505FD171CC41C401387170007
:101C600018C0238037015C486389A7008357C400EC
:101C7000858B81CBA9476316F900A285268571243F
:101C80000DEDF24062444A85D2444249B2490561B1
:101C9000828097170000938767386314F4008044AC
:101CA00059B79717000093876733E31EF4F6C044D3
:101CB0009DBFA285268521203DDD7D59D9B74111E3
:101CC00097E7FF1F9387473F26C2844322C44AC039
:101CD00006C62A892E8489C49C4C99E32685A926A8
:101CE0009717000093878731631CF402C0400317E5
:101CF000C40093170701C18393F68700B5EE93F6EE
:101D000007019DEEA5472320F9001367070423165A
:101D1000E4007D55B2402244924402494101828050
:101D2000971700009387872F6314F4008044C1B78E
:101D3000971700009387872AE31BF4FAC04445BF36
:101D4000918B8DC74C5889C9930744046384F5006F
:101D50004A85352B232A04028357C400232204001A
:101D600093F7B7FD2316F4001C481CC08357C4002A
:101D700093E787002316F4001C4881EF8357C400C3
:101D80001307002093F707286385E700A2854A859B
:101D900085218357C40013F7170005C75C48232427
:101DA0000400B307F0401CCC1C480145A5F783177D
:101DB000C40013F7070839DF93E707042316F4007C
:101DC00089BF898B014791E3584818C4F1BF83D775
:101DD000C500011122CC26CA06CE4AC84EC613F74A
:101DE0008700AA842E8471EFD841634DE000B8418A
:101DF000634AE0000145F2406244D2444249B2499C
:101E00000561828058547DD703A904009396370159
:101E100023A0040063DD060670488357C400918B3D
:101E200099C75C401D8E5C5899C33C401D8E5C5424
:101E30000C50814626858297FD570357C400631DC9
:101E4000F5009440F54763E8D706B70740208507BB
:101E5000B3D7D700858BA5C31C48232204001CC020
:101E60009317370163D80700FD576314F5009C40B2
:101E700091E368C84C5823A02401ADDD93074404C6
:101E80006384F50026852121232A0402A5B70C507E
:101E90000146854626850297FD572A86E31FF5F6FB
:101EA0009C40A5DF75476385E70059476394E704C5
:101EB00023A0240181B7136707042316E4007D558E
:101EC0001DBF83A90501E38709F203A905008D8BD6
:101ED00023A0350133093941014791E3D84918C49A
:101EE000E35A20F11C540C50CA864E8626858297F0
:101EF0006349A0008357C40093E707042316F40046
:101F00007DBFAA993309A940E1BF9C49B9CF01110E
:101F100022CC06CE2A8411C51C4D81E72EC629226B
:101F2000B245971700009387670D639BF5004C40FF
:101F30008397C50095C722856244F240056141BD83
:101F4000971700009387870D6394F5000C44CDB775
:101F50009717000093878708E39CF5FC4C44C9BFA2
:101F6000F240624401450561828001458280411151
:101F700022C406C62A842316B5002317C5002320D1
:101F8000050023220500232405002322050623281B
:101F90000500232A0500232C050021468145130551
:101FA000C505EFE08FE097170000938767B45CD01A
:101FB000971700009387C7B61CD497170000938724
:101FC00007BB5CD4971700009387C7BD00D01CD80F
:101FD000B24022444101828097050000938525F399
:101FE000A9A2411126C2130680069384F5FFB3848B
:101FF000C4024AC02E8922C406C693854407252EF2
:102000002A8401CD2320050023222501310508C49F
:10201000138684068145EFE04FD92285B2402244E1
:1020200092440249410182801C4DADE3411106C634
:1020300022C497070000938767FA1CD59387018213
:102040009C43232405042326050423280504631444
:10205000F50085471CCD2A841D2848C02285052807
:1020600008C422852D2048C44840014691450137C7
:1020700008440546A545E53D48440946C945C53DD2
:1020800085471CCCB24022444101828082804111AC
:102090009387018226C284434AC006C69C4C22C450
:1020A0002A8999E326854937938484048044DC4057
:1020B000FD1763D607009C40B9CF8440C5BF031706
:1020C000C40039E7C17785072322040623200400D2
:1020D00023220400232404005CC423280400232AB0
:1020E0000400232C0400214681451305C405EFE0BC
:1020F000CFCB232A0402232C040223240404232606
:1021000004042285B2402244924402494101828063
:102110001304840671BF91454A85E13588C051FD9D
:10212000B1472320F9000144E9BF797122D44AD094
:1021300052CC56CA5AC85EC606D626D24ECE2A8A77
:10214000AE8A130485040149054BFD5B09ECB250CE
:1021500022544A8592540259F249624AD24A424B69
:10216000B24B45618280044483294400FD1963D445
:1021700009000040E1BF83D7C400637BFB00839765
:10218000E40063877701A6855285829A3369A900A6
:1021900093848406E1BF1971A6DAAE848395E500C5
:1021A000A2DC86DE328463DC050083D7C40023A072
:1021B000060093F7070885E7930700401DA0300845
:1021C00036C6EF00B023B246E34105FE7247BD6755
:1021D000F98F7977BA9793B717009CC2F1BF93072D
:1021E00000041CC0F6506654D65401450961828033
:1021F00083D7C500011122CC06CE26CA4AC8898BD6
:102200002E8489CF930774041CC01CC885475CC802
:10221000F2406244D2444249056182807400300039
:10222000AA84953FA2452A892685312201ED83178C
:10223000C40013F7072069FFF19B93E727002316DB
:10224000F400C9B797070000938747D99CD48357F8
:10225000C40008C008C893E707082316F400A24783
:102260005CC8B24791CF8315E4002685EF00B01B10
:1022700001C98357C400F19B93E717002316F400AC
:102280008357C4003369F9002316240151B7DDC117
:1022900083A7C5FF411122C406C626C21384C5FF09
:1022A00063D307003E94AA84EF00D01E9387C185B4
:1022B0009C4381EF2322040023AE81842244B24058
:1022C0002685924441016F00101D637EF400144086
:1022D0003307D4006396E7009843DC43369718C071
:1022E0005CC0D9BFBA87D84319C3E37DE4FE9443E9
:1022F0003386D700631F86001040B29694C333869E
:10230000D700E31DC7FA10435843B29694C3D8C30D
:1023100075B76375C400B1479CC04DB71040B30694
:10232000C4006316D70014435843B29614C058C073
:10233000C0C369B78280011126CA93843500F19821
:1023400006CE22CC4AC84EC6A104B14763F3F404BA
:10235000B14463E2B4042A89EF00D0139387C185A6
:1023600098433A8439E0938701869C4391E78145FD
:102370004A85892F23A0A186A6854A85A127FD59D4
:1023800063193507B1472320F9004A85EF00B010E3
:1023900029A0E3D004FCB1471CC10145F2406244CE
:1023A000D2444249B249056182801C40858F63CF87
:1023B0000702AD4663F6F6001CC03E9404C031A08F
:1023C0005C406313870223AEF1844A85EF00B00CB2
:1023D0001305B4009307440061993307F5405DDFAE
:1023E0003A94898F1CC05DBF5CC3C5B7228740404B
:1023F00095BF130435007198E30285FCB305A44032
:102400004A85C925E31C35FBB5BF1C46FD171CC614
:1024100063DA0700184E63C5E700A9476394F50027
:102420006FF0EFFD1C422E851387170018C2238022
:10243000B7008280011122CC26CA4AC84EC652C4B7
:1024400006CE2A89AE893284B304D6007D5A63143D
:102450009400014509A8834504004E864A857537D6
:102460000504E31645FFF2406244D2444249B249B2
:10247000224A05618280357122CD26CB4AC94EC7DA
:1024800006CF52C556C35AC1DEDEE2DCE6DAAA89BF
:10249000AE843289368409C51C4D99E3EFF0DFB86C
:1024A00097170000938787B5639BF40C83A44900BA
:1024B00083D7C400A18BF5C79C48E5C793070002EA
:1024C000A304F1029307000302D22305F10222C6FE
:1024D000930B5002971A0000938A4AB6054C294B79
:1024E0004A848347040099C36390770FB30C244157
:1024F000638D0C00E6864A86A6854E85253FFD57EE
:102500006306F51E9256E69636D283470400638F23
:10251000071CFD571309140002C802CE3ECA02CCA4
:10252000A309010482D48345090015465685B127C5
:1025300013041900C24759E913F7070109C7130724
:102540000002A309E10413F7870009C71307B002CB
:10255000A309E104834609001307A0026380E6088B
:10256000F2474A8481462546034704009305140038
:10257000130707FD6379E60AB5CA3ECE85A897170B
:1025800000009387A7A96395F40083A489000DB781
:1025900097170000938787A4E39CF4F083A4C900F5
:1025A00001BFA6854E85EFF08FF109D97D55FA4020
:1025B0006A44DA444A49BA492A4A9A4A0A4BF65BBB
:1025C000665CD65C0D618280050421BF33055541F0
:1025D0003315AC00C98F3EC82289B1B73247930684
:1025E0004700184336C6634907023ACE0347040042
:1025F0009307E002631FF704034714009307A00248
:10260000631BF702B2470904138747009C433AC68D
:1026100063C107023ECA35A83307E04093E72700AD
:102620003ACE3EC8E1B7B387670385462E84BA9792
:1026300025BFFD57C5B7050402CA81468147254617
:102640000347040093051400130707FD6376E606AD
:10265000F1F2834504000D46171500001305859E11
:10266000292D11CD971700009387C79D1D8D9307C6
:102670000004B397A700424505045D8D2AC8834531
:1026800004001946171500001305059C13091400D2
:102690002304B102DD233DC197E7FFFF93878796AF
:1026A00095E74247B2471377071009CF91073EC617
:1026B0009257D2973ED22DB5B387670385462E84B5
:1026C000BA97BDBF9D07E19BA107D5B778009706D4
:1026D0000000938666D626860C084E85970000007B
:1026E000E7000000FD572A8AE314F5FC83D7C400F5
:1026F00093F70704E39C07EA125555BD7800970647
:102700000000938666D326860C084E85012AD9BF21
:10271000797156CA9C49BA8A984522D426D24ECE9F
:1027200052CC06D64AD05AC85EC6AA892E84B28434
:10273000368A63D3E700BA879CC00347340419C3C1
:1027400085079CC01C4093F7070281C79C408907FE
:102750009CC00329040013796900631A0900130B54
:102760009401FD5B5C449840998F634CF9041C40D4
:102770008346340493F70702B336D000A5EB130663
:102780003404D2854E85829AFD576303F5041C40BC
:1027900011469840998B544481446397C700B38491
:1027A000E64063D3040081441C4418486354F70096
:1027B000998FBE94014969047D5B639824050145A6
:1027C00009A885465A86D2854E85829A631E750170
:1027D0007D55B250225492540259F249624AD24A6B
:1027E000424BB24B456182800509ADBF3307D4002F
:1027F00013060003A301C70403475404938716007C
:10280000A2978906A381E7049DBF85462286D285CB
:102810004E85829AE30E65FB050945B7797122D48E
:1028200026D24AD04ECE06D652CC56CA5AC8B689FF
:1028300083C68501930790063289AA842E84138665
:102840003504638DF60263E2D7069307800563873C
:10285000F61863EDD7006380062293073004638E79
:10286000F60A930A24042301D404C9A0930730066E
:102870006385F60A93074006E395F6FE1C4008437D
:1028800093F6070893054500C5C61C410CC363D8E1
:1028900007001307D002B307F040A301E404970632
:1028A00000009386E67A29476DA8930700076383A3
:1028B000F61663E5D7029307E006638AF6189307D6
:1028C000F006E390F6FA0C401C4313F80508138554
:1028D00047006307080608C39C438DA89307500769
:1028E000E383F6FE93078007638AF61293073007A7
:1028F000E399F6F61C43D04181459386470014C303
:1029000083AA07005685952E01C53305554148C059
:102910005C401CC8A301040471A81C43930A24044E
:10292000938647009C4314C32301F4048547D5B71D
:1029300093F607041C410CC3B9DAC207C18781BFF3
:1029400093F5050408C3C9D983D707001307F00618
:102950006387E60E970600009386866F2947A301DA
:1029600004044C400CC463C5050008406D9908C0C0
:1029700099E3B28A91CDB28AB3F5E702FD1AB69512
:1029800083C505002380BA00B3D5E70263FFE70AD9
:10299000A147631EF7001C40858B91CB58401C4813
:1029A00063C7E70093070003A38FFAFEFD1A3306FF
:1029B000564110C84E87CA867000A2852685893B7D
:1029C0007D5A631E450B7D55B250225492540259D4
:1029D000F249624AD24A424B45618280A382D504C1
:1029E000970600009386C6660C40084313F8050856
:1029F0001C411105630D080208C313F7150001C738
:102A000093E505020CC04147B9FB0C4093F5F5FD79
:102A10000CC0B1B79C4193E707029CC193078007A4
:102A2000A302F404970600009386C66375BF13F8EB
:102A3000050408C3E30308FCC207C1837DBF9706F2
:102A400000009386E660214719BFAE8735B79441F1
:102A50001C43CC4913F80608138547006306080099
:102A600008C39C438CC301A808C393F606049C4387
:102A7000F5DA2390B70023280400B28A25BF144852
:102A80005686CA8526858299E30F45F31C40898BBB
:102A90008DE7B2474844E359F5F23E8535B78546A0
:102AA0005686CA8526858299E30F65F1050A5C443E
:102AB0003247998FE345FAFEE9BF014A930A940130
:102AC0007D5BF5B7411122C42A842E8523A8018697
:102AD00006C63D24FD576317F500938701879C4385
:102AE00091C31CC0B240224441018280411122C4E2
:102AF0002E848395E50006C64522634905007C487F
:102B0000AA977CC8B2402244410182808357C40006
:102B10007D777D17F98F2316F400EDB783D7C500B5
:102B2000011122CC26CA4AC84EC606CE93F707101A
:102B3000AA842E843289B68991C78395E500894697
:102B4000014631228357C4007D777D17F98F231604
:102B5000F4008315E4006244F240CE864A86B2490E
:102B600042492685D24405613DA8411122C42E84E4
:102B70008395E50006C6E128FD570357C400631B93
:102B8000F500FD77FD17F98F2316F400B2402244BB
:102B9000410182808567D98F2316F40068C8FDB78C
:102BA0008395E50005A8411122C42A842E85B285AB
:102BB000368623A8018606C6EFE09FE2FD5763171D
:102BC000F500938701879C4391C31CC0B240224407
:102BD00041018280411122C42A842E8523A80186C6
:102BE00006C6CD20FD576317F500938701879C43E8
:102BF00091C31CC0B240224441018280411122C4D1
:102C00002A842E85B28523A8018606C6D120FD57C9
:102C10006317F500938701879C4391C31CC0B240A2
:102C2000224441018280411122C42A842E8523A896
:102C3000018606C66520FD576317F5009387018757
:102C40009C4391C31CC0B240224441018280411187
:102C500022C42A842E85B285368623A8018606C61C
:102C60006120FD576317F500938701879C4391C34B
:102C70001CC0B24022444101828093F5F50F2A9690
:102C80006314C5000145828083470500E38DB7FECC
:102C90000505FDB782808280411122C42A842E85D9
:102CA000B285368623A8018606C6A920FD5763177C
:102CB000F500938701879C4391C31CC0B240224416
:102CC000410182809307800523A8F1867D5582808B
:102CD0009307800523A8F1867D55828093078005A0
:102CE00023A8F186014582809307800523A8F186F9
:102CF0007D5582809307800523A8F1867D558280CB
:102D0000938741869C4391C73E9523A2A1863E8529
:102D10008280938741873E9523A2A1863E8582804B
:102D2000050F160002071002060000000A1003003B
:102D30000E00010AFF07000055534253532D3E4C2D
:102D4000494E4B5F494E545F464C41472026204C2C
:102D5000494E4B5F44495341424C455F464C4147C5
:102D6000202C205553423330445F696E69742844E7
:102D7000495341424C45290012034D00530046007F
:102D80005400310030003000010000008E000000CF
:102D9000000105000100840000000100000028007F
:102DA00044006500760069006300650049006E001C
:102DB00074006500720066006100630065004700F2
:102DC00055004900440000004E0000007B00310027
:102DD00032003300340035003600370038002D0053
:102DE00031003200330034002D0031003200330056
:102DF00034002D0031003200330034002D0031004A
:102E00003200330034003500360037003800390016
:102E10004100420043007D000000000009022C0038
:102E200001010080640904000002FFFFFF000705A4
:102E300081020004000630020000000705010200C4
:102E4000040006300300000012010003FF80550952
:102E5000861A3755000101020301000026035700BE
:102E600043004800200055005300420033002E006C
:102E70003000200044004500560049004300450052
:102E800020000000555342332E3020646973616284
:102E90006C6500004C696E6B5F53746120213D20AE
:102EA0004C494E4B5F5354415F33202C20555342C5
:102EB0003330445F696E69742844495341424C453C
:102EC00029000000496E69742065727200000000DC
:102ED0006A1100006C1000005C0F0000EE10000092
:102EE0005C0F0000A00F0000F00E00005C0F00005F
:102EF0001C10000028100000AC0F0000AC0F0000F8
:102F00000902200001010080640904000002FFFFA3
:102F1000FF00070581020002000705010200020010
:102F20001201000200000040861A3755001101020C
:102F30000001000026035700430048002000550010
:102F40005300420032002E003000200044004500B3
:102F50005600490043004500200000000A2D2D2D99
:102F60002D2D2D2D2D0A4352432065727200000035
:102F70000A2D2D2D2D2D2D2D2D0A4E554D5F4D49F0
:102F800053206572720000005B4552524F525D2023
:102F90004649464F2066756C6C0000004649464F16
:102FA000204F560D000000000A0A0A0A0A0A0A2BDE
:102FB0002B2B2B2B2B2B2B2B2B2B2B2B2B2B2B008C
:102FC000537461727420404368697049443D2530F0
:102FD00038580D0A0000000000000000000000004A
:102FE00000000000000000000000000000000000E1
:102FF00000000000000000000000000000000000D1
:1030000000000000000000000000000000000000C0
:1030100000000000000000000000000000000000B0
:1030200000000000000000000000000000000000A0
:103030000000000000000000232D302B20000000C5
:10304000686C4C0065666745464700003031323396
:103050003435363738394142434445460000000094
:1030600030313233343536373839616263646566FE
:04307000000000005C
:1030740016033000310032003300340035003600CE
:103084003700380039000000C40C00001E0E000098
:10309400200E0000220E0000240E0000260E000068
:1030A400280E00001C0E00002A0E00002C0E00004A
:1030B4002E0E0000300E0000320E0000340E000010
:1030C40000000000F82F000018300000D82F000086
:1030D40000000000000000000000000000000000EC
:1030E40000000000000000000000000000000000DC
:1030F40000000000000000000000000000000000CC
:1031040000000000000000000000000000000000BB
:1031140000000000000000000000000000000000AB
:1031240000020100500000200403090408035700B2
:1031340043004800040309040803570043004800FF
:08314400500000200000000013
:10314C000000000000000000000000000000000073
:10315C000000000000000000000000000000000063
:10316C000000000000000000000000000000000053
:10317C000000000000000000000000000000000043
:00000001FF
