:040000006F10600A13
:1000040000000000000000006F1080096F1040091C
:1000140011BFF9F70000000000000000000000001C
:1000240000000000000000000000000000000000CC
:100034006F100007000000006F1080060000000031
:100044006F1000066F00101A6F1080056F104005C6
:100054006F00F0186F0050226F1080046F1040047E
:100064006F1000046F10C0036F1080036F10400303
:100074006F00D05D6F10C0026F1080026F104002DD
:100084006F1000026F10C0016F1080016F104001EB
:100094006F100001000000000000000000000000DC
:1000A400000000000000000000000000000000004C
:0C00B40000000000000000000000000040
:1000C000B7870040194798D38280B787004013074D
:1000D000001498C34947D8C337574C00130717B4C7
:1000E000944B918ABDE623AE070623AC070623A6F0
:1000F000070823A4070823AE070823AC070823A694
:10010000070A23A4070A23AE070A23AC070A23A67B
:10011000070C23A4070C23AE070C23AC070C23A663
:10012000070E23A4070E4D47D8D337070300130744
:10013000170298D323A807069843014513672700A1
:1001400098C337C710001307D7C798C70947D8C344
:1001500082807D1751F70545828013051002828049
:1001600093178501E1879376750063DF0700B70772
:100170000001B397D70099C937860040345AD58F0C
:100180003CDA238CA1828280C167E5B7B786004044
:10019000B05A93C7F7FFF18FBCDA238C01828280BB
:1001A000B787004088DF828001CD378700401C532D
:1001B00037060800D18F1CD38547A38BF18282803C
:1001C000378600401C523707F8FF7D17F98F1CD285
:1001D000A38B01828280B78700409387870712052F
:1001E0003E951C4113D707012310F6007D8BF18348
:1001F0002380E5009D8B2380F6008280B787004036
:100200009387870712053E951C414206EA054D8EED
:100210005D8E10C18280B7870040938787071205E3
:100220003E951C413707E003F98F1CC18280B787D8
:1002300000409387870712053E951C4186078583FA
:100240001CC18280B78700409387870712053E95BF
:1002500008416181137505088280378800401308C2
:10026000C80712054295D6073708E003B3F7070120
:10027000F205CD8F6A06D18FC206D58F1377F77F2F
:10028000D98F1CC18280B78700409387C7071205AA
:100290003E956A06F2051C414D8EC206558E1377B7
:1002A000F77F598E5D8E10C18280B787004093879B
:1002B000C70712053E951C41860785831CC18280B5
:1002C000B78700409387C70712053E951C41370743
:1002D000E003F98F1CC18280B78700409387C7076E
:1002E00012053E950841618113750508828083C718
:1002F0008183A98F9D8B99E7B7870040885721811B
:100300007D898280B787004012059387C7073E9595
:1003100008414181F5B703C705009377F5006205F1
:10032000B706E00356076185758F9207B7860040D0
:10033000635705009386C607B69798C38280938655
:100340008607DDBF9377F50062058A079A05618508
:10035000DD8D6358050093E53500B7870040ECC399
:10036000828093E51500D5BF378700401C53620596
:10037000A207A1831CD31C535D8D08D382803787CD
:1003800000405C43F19B5D8D48C31C4B918BF5FF96
:100390008280B7870040885361818280B70702203E
:1003A00003C7070093760706C1E29387070083C659
:1003B00017000D466389C60213061003638CC6043A
:1003C00005466393C6067D8B8946631FD7040111DA
:1003D00006CE03C547009305F100A3070100253FA2
:1003E000F2400561828083C72700130700036399E9
:1003F000E700378700401C43C166D58F1CC382804D
:10040000130710036392E702378700401C43B706C7
:100410000200E5B703C7370083C727002207BA9752
:10042000378700401CDF82808280378700405C5322
:10043000411122C406C613F4F70FA18B89CBA14743
:100440005CD383C7718381C7085BEF00F01093779B
:10045000140063860712378400405C505450A18317
:10046000B1829D8B858A639F070EA9CEFD2183C62D
:100470006183850693F6F60F238BD18283C6618351
:10048000FD8A238BD18219E9238B0182B7070104EE
:100490003CDC232E040693071004B1A0232C040691
:1004A0007C5CB70620EC03C76183938606C0F58F9A
:1004B000C98F5607D98F37050114C98F7CDC930784
:1004C000300415A03C5C1397170063530704232CDA
:1004D0000406E935452CC167FD17631FF500B70712
:1004E00000187CDC8D477CC0B78700400547D8D317
:1004F000B240224441018280B707010429C9930711
:100500000020E3E3A7FEB70701145D8D68DC45BF5B
:100510003C5C13972700635807005D29232E0406CF
:10052000232C0406D1B75D2103C751830507137738
:10053000F70FA38AE18203C751837D8BA38AE182EF
:1005400009C983C7518337070104D607D98F3CDC1B
:1005500099B73707010438DC1307100478C0A38A61
:10056000018259B7FD1737070020130787018A0753
:10057000BA9781C69C43829785BFDC4FEDBF09883F
:1005800025D8B7870040B84F9306000A1377071E97
:100590006319D7001307002CB8C723A6070423A8A4
:1005A0000704B7870040094799B73D432A8763731B
:1005B000C3029377F700BDEFADE5937606FF3D8A62
:1005C000BA960CC34CC30CC74CC74107E36BD7FEAC
:1005D00011E28280B306C3408A0697020000969615
:1005E0006780A6002307B700A306B7002306B7005D
:1005F000A305B7002305B700A304B7002304B70081
:10060000A303B7002303B700A302B7002302B70078
:10061000A301B7002301B700A300B7002300B70070
:10062000828093F5F50F93968500D58D93960501FD
:10063000D58D61B793962700970200009696868223
:10064000E78086FA9680C1171D8F3E96E374C3F843
:10065000A5B7B7E700E04147B443B8C30547331532
:10066000A70023A0A718B4C38280411106C6B13CDD
:1006700001C93725000013050574EF00D05E01A005
:1006800037870040930730303CDBB240B707022089
:10069000938707007CDB4101828011C1F9B74111CA
:1006A000094506C6E939B78700401307800298C399
:1006B0004D47D8C3B24023A40700194798D341013E
:1006C000828001113705022022CC1307050006CED7
:1006D00026CA4AC84EC652C456C20346170083559E
:1006E00067002380C18223AEB1800948834607009A
:1006F000938701821384C181630506031307A00A4F
:100700006300E6047D57C1692380E700FD19F240CC
:1007100062444E85D2444249B249224A924A056116
:100720008280034647001547E31EE6FC9307E00876
:1007300063F3B7001CC089679387876023A2F182A7
:10074000044093070020268963F4970013090020D2
:100750009397860193190901E18793D9090163DF12
:100760000700138A4182832A0A004A86130505007E
:10077000D685CA9AEF00F03123205A01B384244170
:1007800004C071B701113705022022CC06CE26CA5B
:100790004AC84EC652C456C29306050083C7160007
:1007A00003D7660003C606001388C1812380F18247
:1007B0002320E8001376060611CA6244F240D244B0
:1007C0004249B249224A924A0561E5BD19469385DC
:1007D00001821384C1816383C706930805006364A3
:1007E000F602054701496389E702638207160D4750
:1007F0006384E70215476387E714FD574169238047
:10080000F5007D1911A82D4701496387E700636F43
:10081000F7002547E393E7FEF24062444A85D2445D
:100820004249B249224A924A056182801307000375
:100830000149E383E7FE1307100375BF03C63600C3
:10084000094893844182630E06076369C80085479F
:100850006304F602FD572380F5003DA08D47630B2E
:10086000F606BD47E318F6FED94763F3E7001CC060
:1008700089679387475901A8C94763F3E7001CC0FC
:1008800089679387476C9CC0032A04009307002064
:10089000D28963F447019309002083AA04001399C5
:1008A00009014E86330A3A41D68513050500D699CB
:1008B000EF00301E135909012320440123A0340105
:1008C000A1BF9307C00263F3E7001CC08967938749
:1008D000876955BF83C7260063840705636DF800E9
:1008E0008DCB8546E398D7F6A14763F3E7001CC09C
:1008F0009387C18049BF638EC7029306E00EE39BD6
:10090000D7F4C94763F3E7001CC089679387475F43
:100910009DBF914763F3E7001CC093878180A5B713
:100920009307600263F3E7001CC089679387876DB4
:1009300099BFD94763F3E7001CC0B707002093872E
:10094000070091B783C7280001491CC0F1B5239067
:10095000E600232008000949C1B503C7018201113F
:1009600056C206CE22CC26CA4AC84EC652C49947A1
:10097000814A6313F70483A4C18113070020138AFB
:10098000C181268463749700130400201389418277
:100990008329090037050220931A04012286818CDD
:1009A000CE85130505004E94EF00B00E93DA0A01D0
:1009B00023209A0023208900F24062445685D244C5
:1009C0004249B249224A924A0561828001458280A9
:1009D00003C7018295476315F70003A5C18169B27A
:1009E0008280A13473002030411122C6B727004015
:1009F00005472383E7009387818103C70700854666
:100A00006394E602514523800700A1315545913199
:100A1000014561313725000013050570EF00B02452
:100A200032444101730020301384818183470400E4
:100A300011476308F70251452939554519390145D0
:100A4000A939B797004023A0070037070002B7E78E
:100A500000E03725000023A0E71013050571EF0023
:100A6000B00E85472300F400372400402301040022
:100A70004545C53689472300F4005DB7411122C6BC
:100A8000378400405C4413973701635A070093078B
:100A9000201C1CC00145EFF09F8E85675CC4B787A2
:100AA0000040D847058B39C30547D8C71387118243
:100AB0008346070093F6F60F81CE93060028B4C74D
:100AC000B70602009106F4C723A807042300070015
:100AD00011474545238CE180AD3EB72700400947CB
:100AE0002380E700238107006545A5363784004051
:100AF0005C44918BB1C3238C018037071000B7E7AA
:100B000000E023A0E7103707200023A0E7103707F5
:100B1000020023A0E7103755FE03B7270040054722
:100B20002381E7001305056CEF0060753D3E91479A
:100B30005CC40945EFF0BF84378700405C47A18B58
:100B40009DCFA1475CC701450547238CE180B136A5
:100B500051450136B727004009472380E70023812C
:100B600007004545FD34B7E700E0370700023725A9
:100B7000000023A0E7101305455BEF00E07CB7877A
:100B80000040D8479316B70063D806003707100017
:100B9000D8C70945EFF0AFFE378400405C4493F7B7
:100BA000074099CF930700405CC41C48858B638E37
:100BB000070E0945EFF0AFFC5C400567D98F5CC0BC
:100BC000B7860040D8468567938707807D8F01CB25
:100BD0000546A380C182DCC60145EFF04FFA378499
:100BE00000405C44139727016357070289675CC480
:100BF0000945EFF0CFF85C4093E707105CC0B7877A
:100C00000040984B098B75FFD84301451377F7EFE8
:100C1000D8C3EFF06FF5378400405C4413970701A9
:100C2000635F07021C50370700808146D98F1CD0B4
:100C3000A1675CC40147014681450545232E040692
:100C4000EFF06FE4014681450545EFF02FDB0145EC
:100C5000EFF08FF15C4041777D17F98F5CC03784EE
:100C600000405C4493F7070499C70545EFF02FF166
:100C7000930700045CC4378400405C4493F7070288
:100C800099C70945EFF0AFEF930700025CC43784C2
:100C900000405C44C18B91C70945EFF04FEEC1475E
:100CA0005CC432444101730020302324040009BF96
:100CB0004111054506C622C4EFF06FE301ED224461
:100CC000B240B707002005472388E70A05454101E0
:100CD0006FF00FDF91472A8463E8A704138721820E
:100CE0008347070003A68184898FAA07B29723A4AC
:100CF000F18483A68184B787004023A0D70823000E
:100D0000A7000545EFF0CFDBA28685450545130713
:100D100000400546EFF02FD7A2852244B2401305CC
:100D2000100841016FF00FE20545EFF06FD9224442
:100D3000B240372500001305C55A41012DA7828016
:100D40008280828082808280828082808280828093
:100D500082808280828082808280B7170040B84380
:100D6000B7162000938606A0558FB8C3B84F856686
:100D700093860680558FB8CFB843B70680001367B7
:100D80000740B8C3B857558FB8D7B853558FB8D3A5
:100D9000B85F558FB8DFB45B370780FF7D17F98EDA
:100DA000B4DBF45B758FF8DBB767004003C707005F
:100DB0001377F7072380E70003C70700136787004F
:100DC0002380E70003C707001377F7072380E700B6
:100DD00003C707001377F70B2380E70003C707005B
:100DE0001377F70D2380E70003C737001367070267
:100DF000A381E70003C7370013673700A381E7002B
:100E000003C72700136727002381E70003C72700D4
:100E1000136747002381E70037070220D8C7371739
:100E2000022098CB03C717001377770EA380E70043
:100E300003C7170013673700A380E7003D472384EB
:100E4000E702B7E700E03707001023A0E710828031
:100E5000371700403C57B7068000D58F3CD737671F
:100E6000004083478702898BB1CB89472304F7026F
:100E70009387C1829443850694C383479702898BE5
:100E800091C7372500001305C574F12BB7670040E3
:100E900003C79702118B01CF03C7B70237250000A4
:100EA000130545751377070FA385E7026D2BB76709
:100EB000004083C7970205472388E18237670040D7
:100EC00083478702918B89CB914737250000230404
:100ED000F7021305C575412B73002030B7D7F00812
:100EE00093870718B3D7A7022945373700408546AF
:100EF0002307D7409507B3D7A702C207C18323169C
:100F0000F740930770FC2301F7408D47A301F7409A
:100F100093070004A300F740B7170040F84F13678A
:100F20000718F8CFB84313670710B8C382807971E8
:100F300022D437142707130504E006D626D24AD058
:100F40004ECE52CC56CA5AC85EC6C52A130504E016
:100F5000D52437450F0013050524493737250000F0
:100F60001305857609233719004083451900372575
:100F7000000013050578C92E372500001305857973
:100F8000DD21B797004023A0070037071000B7E71F
:100F900000E023A0E7103707200023A0E710370761
:100FA000020023A0E7103755FE03B727004005478E
:100FB0002381E7001305056CD9240545EFF0EFED1B
:100FC00037140220593BB767004013040420B704CC
:100FD0000220C0C79384042084CB8327C906370727
:100FE0008000B7090020D98F2326F906114B854BC5
:100FF00083C7090B93F7F70FE5DF83C7018393F7E7
:10100000F70FFDD7B7E700E0B4434147B8C3370651
:10101000100023A0C718B4C3B443B8C337070010E7
:1010200023A0E718B4C32388090A2388018283C751
:101030008182B766004093F7F70FB9EB2384718381
:10104000C4C623A48184B787004023A08708130760
:101050000040914605468545054523816183EFF0B3
:101060008FA2914513051008EFF0CFAD3717004060
:101070007C57B7068000D58F7CD7B7E700E03707ED
:10108000100023A0E7103707001023A0E7108DB74A
:1010900023840182C0C623A49184B787004023A083
:1010A000970875B701A0970100209381A18017319F
:1010B0000020130121F5171500001305657897F539
:1010C000FF1F938525F41386818163FAC50083226F
:1010D000050023A0550011059105E3EAC5FE13851F
:1010E0008181938501856377B50023200500110573
:1010F000E36DB5FE17F501201305C5F097F5012046
:10110000938545F06377B500232005001105E36D55
:10111000B5FE930280087390023097F2FFFF93822E
:10112000A2EE93E212007390523097020000938275
:1011300042E07390123473002030B7470F0093875A
:1011400007243355F5029307C0031375F50F630C9D
:10115000F50863EDA700BD476303F504F947630392
:10116000F506B7170040238007008280930700062A
:101170006308F508930780076301F50A93070005E4
:10118000E311F5FEB7170040130770052380E70051
:10119000130780FA2380E7001307600481A0B717C4
:1011A0000040130770052380E700130780FA2380AF
:1011B000E700130720042384E700130700F82385C2
:1011C000E70045B7B7170040130770052380E70015
:1011D000130780FA2380E700130700042384E70045
:1011E000130720F8E9BFB7170040130770052380E5
:1011F000E700130780FA2380E70013078004F9BF94
:10120000B7170040130770052380E700130780FA23
:101210002380E70013075004D1B7B7170040130726
:1012200070052380E700130780FA2380E700130787
:1012300040046DB7B7177A00938707203355F5023E
:101240001375F50F238AA1829307803E3305F502BB
:101250002399A1828280814737370040A14663C429
:10126000C700328582800345B740E38EA6FE3385F2
:10127000F5000345050085072304A740CDB7B72730
:101280000040C8C709472380E70051472380E70093
:101290008280B3C7A5008D8B3307C50081E78D47DA
:1012A00063EEC700AA876370E50A83C60500850759
:1012B0008505A38FD7FEE3EAE7FE828093763500AB
:1012C000AA8791CA83C6050085078505A38FD7FE27
:1012D00093F63700FDB79376C7FF138606FE63F0DB
:1012E000C70683A3050083A2450083AF850003AF33
:1012F000C50083AE050103AE450103A3850183A8A4
:10130000C5019385450223A0770003A8C5FF23A24A
:10131000570023A4F70123A6E70123A8D70123AA96
:10132000C70123AC670023AE17019387470223AEA2
:1013300007FF75B790419107910523AEC7FEE3EB18
:10134000D7FEE3E4E7F6828039713EDA2ED232D45A
:1013500036D63AD842DC46DE97F7FF1F9387C7D5CB
:1013600022CC804326CA06CEAA8409C41C4C99E329
:10137000228535230C4454102686228536C6EF007C
:10138000F016F2406244D24421618280011126CAE3
:101390004AC806CE22CC4EC652C4AA842E8901C5A4
:1013A0001C4D91E3ED299C4C804499E32685C52989
:1013B0009717000093870741631CF402C0408357CE
:1013C000C400A18BB1C71C48A1C7FD59294A1C44C0
:1013D00083450900FD17B1E91CC463DE07062286B8
:1013E000A94526854128FD576308F502294535A002
:1013F000971700009387073F6314F4008044C1B738
:10140000971700009387073AE31BF4FAC04445BFDF
:10141000A2852685052255D97D55F2406244D244E5
:101420004249B249224A056182801CC4050963D73A
:101430000700184C63CBE700638945011C40138704
:10144000170018C02380B70059B7228626851D20B3
:10145000E31F35F7D1B71C401387170018C0294781
:101460002380E70061B797F7FF1F9387E7C4AA853A
:10147000884329BF011122CC26CA4AC806CE4EC6CF
:10148000AA842E89328401C51C4D91E3092997173E
:101490000000938727336319F406C0401C4C1CC41A
:1014A0008357C400A18BC9C31C48BDCF1C4808404A
:1014B0009379F90F1379F90F1D8D5C486346F50098
:1014C000A2852685752C2DE51C440505FD171CC439
:1014D0001C401387170018C0238037015C486389BC
:1014E000A7008357C400858B81CBA9476316F900F9
:1014F000A285268571240DEDF24062444A85D244CE
:101500004249B24905618280971700009387872D71
:101510006314F400804459B7971700009387872815
:10152000E31EF4F6C0449DBFA285268521203DDD43
:101530007D59D9B7411197F7FF1F9387E7B726C2A7
:10154000844322C44AC006C62A892E8489C49C4C7E
:1015500099E32685A926971700009387A726631C81
:10156000F402C0400317C40093170701C18393F628
:101570008700B5EE93F607019DEEA5472320F900FD
:10158000136707042316E4007D55B24022449244B9
:10159000024941018280971700009387A7246314B2
:1015A000F4008044C1B7971700009387A71FE31B7F
:1015B000F4FAC04445BF918B8DC74C5889C9930735
:1015C00044046384F5004A85352B232A040283579B
:1015D000C4002322040093F7B7FD2316F4001C482F
:1015E0001CC08357C40093E787002316F4001C48EF
:1015F00081EF8357C4001307002093F70728638502
:10160000E700A2854A8585218357C40013F7170098
:1016100005C75C4823240400B307F0401CCC1C48D9
:101620000145A5F78317C40013F7070839DF93E7CF
:1016300007042316F40089BF898B014791E35848BA
:1016400018C4F1BF83D7C500011122CC26CA06CE2B
:101650004AC84EC613F78700AA842E8471EFD8417A
:10166000634DE000B841634AE0000145F240624446
:10167000D2444249B2490561828058547DD703A9BA
:1016800004009396370123A0040063DD060670482A
:101690008357C400918B99C75C401D8E5C5899C3D9
:1016A0003C401D8E5C540C50814626858297FD5728
:1016B0000357C400631DF5009440F54763E8D7065F
:1016C000B70740208507B3D7D700858BA5C31C4833
:1016D000232204001CC09317370163D80700FD576D
:1016E0006314F5009C4091E368C84C5823A0240182
:1016F000ADDD930744046384F50026852121232A68
:101700000402A5B70C500146854626850297FD5771
:101710002A86E31FF5F69C40A5DF75476385E70041
:1017200059476394E70423A0240181B71367070492
:101730002316E4007D551DBF83A90501E38709F247
:1017400003A905008D8B23A03501330939410147D9
:1017500091E3D84918C4E35A20F11C540C50CA86AE
:101760004E86268582976349A0008357C40093E77D
:1017700007042316F4007DBFAA993309A940E1BFED
:101780009C49B9CF011122CC06CE2A8411C51C4D2B
:1017900081E72EC62922B24597170000938787025A
:1017A000639BF5004C408397C50095C72285624432
:1017B000F240056141BD971700009387A70263942B
:1017C000F5000C44CDB7971700009387A7FDE39C65
:1017D000F5FC4C44C9BFF24062440145056182807A
:1017E00001458280411122C406C62A842316B50011
:1017F0002317C5002320050023220500232405000C
:101800002322050623280500232A0500232C050092
:10181000214681451305C505EFE03FD99717000024
:10182000938747B45CD0971700009387A7B61CD462
:10183000971700009387E7BA5CD497170000938747
:10184000A7BD00D01CD8B240224441018280970538
:101850000000938525F3A9A2411126C21306800634
:101860009384F5FFB384C4024AC02E8922C406C6FD
:1018700093854407252E2A8401CD232005002322A9
:101880002501310508C4138684068145EFE0FFD1A8
:101890002285B240224492440249410182801C4D7B
:1018A000ADE3411106C622C497070000938767FA8B
:1018B0001CD5938741819C432324050423260504DA
:1018C000232805046314F50085471CCD2A841D28B0
:1018D00048C02285052808C422852D2048C44840D8
:1018E00001469145013708440546A545E53D484474
:1018F0000946C945C53D85471CCCB240224441013B
:101900008280828041119387418126C284434AC0EC
:1019100006C69C4C22C42A8999E3268549379384BC
:1019200084048044DC40FD1763D607009C40B9CF97
:101930008440C5BF0317C40039E7C1778507232258
:1019400004062320040023220400232404005CC492
:1019500023280400232A0400232C04002146814567
:101960001305C405EFE07FC4232A0402232C0402DC
:1019700023240404232604042285B24022449244F2
:101980000249410182801304840671BF91454A8552
:10199000E13588C051FDB1472320F9000144E9BF7A
:1019A000797122D44AD052CC56CA5AC85EC606D6DD
:1019B00026D24ECE2A8AAE8A130485040149054BED
:1019C000FD5B09ECB25022544A8592540259F24907
:1019D000624AD24A424BB24B456182800444832919
:1019E0004400FD1963D409000040E1BF83D7C4005F
:1019F000637BFB008397E40063877701A6855285AC
:101A0000829A3369A90093848406E1BF1971A6DA2A
:101A1000AE848395E500A2DC86DE328463DC0500BB
:101A200083D7C40023A0060093F7070885E7930730
:101A300000401DA0300836C6EF009023B246E341B7
:101A400005FE7247BD67F98F7977BA9793B717008C
:101A50009CC2F1BF930700041CC0F6506654D654D4
:101A600001450961828083D7C500011122CC06CED1
:101A700026CA4AC8898B2E8489CF930774041CC058
:101A80001CC885475CC8F2406244D24442490561A3
:101A9000828074003000AA84953FA2452A89268559
:101AA000312201ED8317C40013F7072069FFF19B72
:101AB00093E727002316F400C9B797070000938720
:101AC00047D99CD48357C40008C008C893E70708C7
:101AD0002316F400A2475CC8B24791CF8315E400F7
:101AE0002685EF00901B01C98357C400F19B93E743
:101AF00017002316F4008357C4003369F900231636
:101B0000240151B7DDC183A7C5FF411122C406C618
:101B100026C21384C5FF63D307003E94AA84EF0056
:101B2000B01E9387C1839C4381EF2322040023AE20
:101B300081822244B2402685924441016F00F01C0C
:101B4000637EF40014403307D4006396E7009843A3
:101B5000DC43369718C05CC0D9BFBA87D84319C3D5
:101B6000E37DE4FE94433386D700631F8600104074
:101B7000B29694C33386D700E31DC7FA1043584387
:101B8000B29694C3D8C375B76375C400B1479CC0FF
:101B90004DB71040B306C4006316D7001443584332
:101BA000B29614C058C0C0C369B78280011126CA5A
:101BB00093843500F19806CE22CC4AC84EC6A104C3
:101BC000B14763F3F404B14463E2B4042A89EF003B
:101BD000B0139387C18398433A8439E09387018493
:101BE0009C4391E781454A85812F23A0A184A68546
:101BF0004A859927FD5963193507B1472320F90014
:101C00004A85EF00901029A0E3D004FCB1471CC125
:101C10000145F2406244D2444249B24905618280A2
:101C20001C40858F63CF0702AD4663F6F6001CC0EB
:101C30003E9404C031A05C406313870223AEF1825E
:101C40004A85EF00900C1305B40093074400619996
:101C50003307F5405DDF3A94898F1CC05DBF5CC3DC
:101C6000C5B72287404095BF130435007198E30241
:101C700085FCB305A4404A85C125E31C35FBB5BFEF
:101C80001C46FD171CC663DA0700184E63C5E70043
:101C9000A9476394F5006FF0EFFD1C422E85138772
:101CA000170018C22380B7008280011122CC26CAF7
:101CB0004AC84EC652C406CE2A89AE893284B304BD
:101CC000D6007D5A63149400014509A88345040099
:101CD0004E864A8575370504E31645FFF240624497
:101CE000D2444249B249224A05618280357122CDEF
:101CF00026CB4AC94EC706CF52C556C35AC1DEDEEF
:101D0000E2DCE6DAAA89AE843289368401C51C4D4C
:101D100091E37136971700009387C7AA639BF40C71
:101D200083A4490083D7C400A18BF5C79C48E5C7AD
:101D300093070002A304F1029307000302D22305D4
:101D4000F10222C6930B5002971A0000938A8AABC5
:101D5000054C294B4A848347040099C36390770F4D
:101D6000B30C2441638D0C00E6864A86A6854E8519
:101D70002D3FFD576306F51E9256E69636D28347F1
:101D80000400638F071CFD571309140002C802CE1C
:101D90003ECA02CCA309010482D48345090015463A
:101DA0005685B12713041900C24759E913F70701F3
:101DB00009C713070002A309E10413F7870009C745
:101DC0001307B002A309E104834609001307A00228
:101DD0006380E608F2474A848146254603470400AB
:101DE00093051400130707FD6379E60AB5CA3ECED2
:101DF00085A8971700009387E79E6395F40083A456
:101E000089000DB7971700009387C799E39CF4F0FA
:101E100083A4C90001BFA6854E85EFF0AFF109D9B3
:101E20007D55FA406A44DA444A49BA492A4A9A4AEC
:101E30000A4BF65B665CD65C0D618280050421BFAF
:101E4000330555413315AC00C98F3EC82289B1B75F
:101E5000324793064700184336C6634907023ACE15
:101E6000034704009307E002631FF70403471400CD
:101E70009307A002631BF702B247090413874700C8
:101E80009C433AC663C107023ECA35A83307E04007
:101E900093E727003ACE3EC8E1B7B387670385468C
:101EA0002E84BA9725BFFD57C5B7050402CA8146DF
:101EB000814725460347040093051400130707FDD7
:101EC0006376E606F1F2834504000D46171500001F
:101ED0001305C593292D11CD9717000093870793FC
:101EE0001D8D93070004B397A700424505045D8D3F
:101EF0002AC88345040019461715000013054591AB
:101F0000130914002304B102DD233DC197E7FFFF4D
:101F10009387470F95E74247B2471377071009CFDA
:101F200091073EC69257D2973ED22DB5B38767032D
:101F300085462E84BA97BDBF9D07E19BA107D5B703
:101F4000780097060000938686D626860C084E8574
:101F500097000000E7000000FD572A8AE314F5FC13
:101F600083D7C40093F70704E39C07EA125555BDD5
:101F7000780097060000938686D326860C084E8547
:101F8000012AD9BF797156CA9C49BA8A984522D488
:101F900026D24ECE52CC06D64AD05AC85EC6AA89A0
:101FA0002E84B284368A63D3E700BA879CC0034785
:101FB000340419C385079CC01C4093F7070281C7EE
:101FC0009C4089079CC00329040013796900631AA7
:101FD0000900130B9401FD5B5C449840998F634C9E
:101FE000F9041C408346340493F70702B336D0004B
:101FF000A5EB13063404D2854E85829AFD57630300
:10200000F5041C4011469840998B544481446397D1
:10201000C700B384E64063D3040081441C441848DD
:102020006354F700998FBE94014969047D5B6398FE
:102030002405014509A885465A86D2854E85829A8F
:10204000631E75017D55B250225492540259F249D3
:10205000624AD24A424BB24B456182800509ADBF0C
:102060003307D40013060003A301C7040347540435
:1020700093871600A2978906A381E7049DBF854632
:102080002286D2854E85829AE30E65FB050945B707
:10209000797122D426D24AD04ECE06D652CC56CA18
:1020A0005AC8B68983C68501930790063289AA84E7
:1020B0002E8413863504638DF60263E2D7069307F8
:1020C00080056387F61863EDD700638006229307C7
:1020D0003004638EF60A930A24042301D404C9A0B1
:1020E000930730066385F60A93074006E395F6FEEC
:1020F0001C40084393F6070893054500C5C61C41DC
:102100000CC363D807001307D002B307F040A30144
:10211000E404970600009386267029476DA893076C
:1021200000076383F61663E5D7029307E006638A28
:10213000F6189307F006E390F6FA0C401C4313F8E8
:102140000508138547006307080608C39C438DA84C
:1021500093075007E383F6FE93078007638AF6121E
:1021600093073007E399F6F61C43D04181459386E7
:10217000470014C383AA07005685952E01C5330571
:10218000554148C05C401CC8A301040471A81C430D
:10219000930A2404938647009C4314C32301F40448
:1021A0008547D5B793F607041C410CC3B9DAC207BB
:1021B000C18781BF93F5050408C3C9D983D7070038
:1021C0001307F0066387E60E970600009386C66441
:1021D0002947A30104044C400CC463C50500084012
:1021E0006D9908C099E3B28A91CDB28AB3F5E7023E
:1021F000FD1AB69583C505002380BA00B3D5E70262
:1022000063FFE70AA147631EF7001C40858B91CB53
:1022100058401C4863C7E70093070003A38FFAFEEA
:10222000FD1A3306564110C84E87CA867000A28533
:102230002685893B7D5A631E450B7D55B25022543D
:1022400092540259F249624AD24A424B4561828015
:10225000A382D504970600009386065C0C400843D1
:1022600013F805081C411105630D080208C313F794
:10227000150001C793E505020CC04147B9FB0C40AE
:1022800093F5F5FD0CC0B1B79C4193E707029CC1E3
:1022900093078007A302F40497060000938606596B
:1022A00075BF13F8050408C3E30308FCC207C18324
:1022B0007DBF9706000093862656214719BFAE873B
:1022C00035B794411C43CC4913F8060813854700E1
:1022D0006306080008C39C438CC301A808C393F697
:1022E00006049C43F5DA2390B70023280400B28A41
:1022F00025BF14485686CA8526858299E30F45F383
:102300001C40898B8DE7B2474844E359F5F23E857E
:1023100035B785465686CA8526858299E30F65F1CD
:10232000050A5C443247998FE345FAFEE9BF014A4A
:10233000930A94017D5BF5B7411122C42A842E854E
:1023400023A6018406C63D24FD576317F500938735
:10235000C1849C4391C31CC0B2402244410182808D
:10236000411122C42E848395E50006C645226349A7
:1023700005007C48AA977CC8B24022444101828073
:102380008357C4007D777D17F98F2316F400EDB7CE
:1023900083D7C500011122CC26CA4AC84EC606CE34
:1023A00093F70710AA842E843289B68991C7839542
:1023B000E5008946014631228357C4007D777D17A9
:1023C000F98F2316F4008315E4006244F240CE86B0
:1023D0004A86B24942492685D24405613DA8411149
:1023E00022C42E848395E50006C6E128FD570357D5
:1023F000C400631BF500FD77FD17F98F2316F40069
:10240000B2402244410182808567D98F2316F400AF
:1024100068C8FDB78395E50005A8411122C42A8448
:102420002E85B285368623A6018406C6EFE0BFE27C
:10243000FD576317F5009387C1849C4391C31CC06B
:10244000B240224441018280411122C42A842E8557
:1024500023A6018406C6CD20FD576317F500938798
:10246000C1849C4391C31CC0B2402244410182807C
:10247000411122C42A842E85B28523A6018406C672
:10248000D120FD576317F5009387C1849C4391C306
:102490001CC0B240224441018280411122C42A84DE
:1024A0002E8523A6018406C66520FD576317F50017
:1024B0009387C1849C4391C31CC0B2402244410114
:1024C0008280411122C42A842E85B285368623A6B5
:1024D000018406C66120FD576317F5009387C18408
:1024E0009C4391C31CC0B24022444101828093F5B9
:1024F000F50F2A966314C5000145828083470500C5
:10250000E38DB7FE0505FDB782808280411122C4AC
:102510002A842E85B285368623A6018406C6A92084
:10252000FD576317F5009387C1849C4391C31CC07A
:10253000B2402244410182809307800523A6F184A2
:102540007D5582809307800523A6F1847D55828086
:102550009307800523A6F1840145828093078005B7
:1025600023A6F1847D5582809307800523A6F184FC
:102570007D558280938741849C4391C73E9523A2D9
:10258000A1843E858280938701853E9523A2A18404
:102590003E858280050F160002071002060000002B
:1025A0000A1003000E00010AFF070000747820459E
:1025B0005252000055534253532D3E4C494E4B5FEF
:1025C000494E545F464C41472026204C494E4B5FB4
:1025D00044495341424C455F464C4147202C2055CD
:1025E00053423330445F696E697428444953414211
:1025F0004C45290012034D005300460054003100A1
:1026000030003000010000008E00000000010500D5
:102610000100840000000100000028004400650063
:10262000760069006300650049006E007400650073
:1026300072006600610063006500470055004900B4
:10264000440000004E0000007B00310032003300E7
:10265000340035003600370038002D0031003200DC
:10266000330034002D0031003200330034002D00DF
:1026700031003200330034002D00310032003300CD
:102680003400350036003700380039004100420080
:1026900043007D000000000009022C0001010080C1
:1026A000640904000002FFFFFF0007058102000427
:1026B0000006300200000007050102000400063099
:1026C0000300000012010003FF805509861A3755E8
:1026D00000010102030100002603570043004800E7
:1026E000200055005300420033002E00300020002F
:1026F000440045005600490043004500200000000A
:10270000555342332E302064697361626C6500005A
:102710004C696E6B5F53746120213D204C494E4BD8
:102720005F5354415F33202C205553423330445F74
:10273000696E69742844495341424C4529000000A0
:10274000496E697420657272000000004352206572
:10275000727200004E552065727200004649464F65
:10276000204F560D000000000A0A0A0A0A0A0A2B26
:102770002B2B2B2B2B2B2B2B2B2B2B2B2B2B2B00D4
:10278000537461727420404368697049443D253038
:1027900038580D0A0000000068656C6C6F0000007E
:1027A0000000000000000000000000000000000029
:1027B0000000000000000000000000000000000019
:1027C0000000000000000000000000000000000009
:1027D00000000000000000000000000000000000F9
:1027E00000000000000000000000000000000000E9
:1027F00000000000000000000000000000000000D9
:10280000232D302B20000000686C4C006566674566
:10281000464700003031323334353637383941429B
:1028200043444546000000003031323334353637FA
:0C283000383961626364656600000000D6
:10283C00160330003100320033003400350036000E
:10284C003700380039000000B00C0000400D0000CB
:10285C00420D0000440D0000460D0000480D000024
:10286C004A0D00003E0D00004C0D00004E0D000006
:10287C00500D0000520D0000540D0000560D0000CC
:10288C0000000000C0270000E0270000A027000087
:10289C00000000000000000000000000000000002C
:1028AC00000000000000000000000000000000001C
:1028BC00000000000000000000000000000000000C
:1028CC0000000000000000000000000000000000FC
:1028DC0000000000000000000000000000000000EC
:1028EC0001000000500000200403090408035700F5
:0828FC004300480050000020D9
:1029040000000000000000000000000000000000C3
:1029140000000000000000000000000000000000B3
:1029240000000000000000000000000000000000A3
:102934000000000000000000000000000000000093
:00000001FF
